{
  "_format": "hh-sol-artifact-1",
  "contractName": "Farcast",
  "sourceName": "contracts/farcast.sol",
  "abi": [
    {
      "inputs": [
        {
          "internalType": "string",
          "name": "name",
          "type": "string"
        },
        {
          "internalType": "string",
          "name": "symbol",
          "type": "string"
        },
        {
          "internalType": "address",
          "name": "_defaultAdmin",
          "type": "address"
        },
        {
          "internalType": "address",
          "name": "_feeAcc",
          "type": "address"
        }
      ],
      "stateMutability": "nonpayable",
      "type": "constructor"
    },
    {
      "anonymous": false,
      "inputs": [
        {
          "indexed": true,
          "internalType": "address",
          "name": "owner",
          "type": "address"
        },
        {
          "indexed": true,
          "internalType": "address",
          "name": "approved",
          "type": "address"
        },
        {
          "indexed": true,
          "internalType": "uint256",
          "name": "tokenId",
          "type": "uint256"
        }
      ],
      "name": "Approval",
      "type": "event"
    },
    {
      "anonymous": false,
      "inputs": [
        {
          "indexed": true,
          "internalType": "address",
          "name": "owner",
          "type": "address"
        },
        {
          "indexed": true,
          "internalType": "address",
          "name": "operator",
          "type": "address"
        },
        {
          "indexed": false,
          "internalType": "bool",
          "name": "approved",
          "type": "bool"
        }
      ],
      "name": "ApprovalForAll",
      "type": "event"
    },
    {
      "anonymous": false,
      "inputs": [
        {
          "indexed": false,
          "internalType": "uint256",
          "name": "_fromTokenId",
          "type": "uint256"
        },
        {
          "indexed": false,
          "internalType": "uint256",
          "name": "_toTokenId",
          "type": "uint256"
        }
      ],
      "name": "BatchMetadataUpdate",
      "type": "event"
    },
    {
      "anonymous": false,
      "inputs": [
        {
          "indexed": false,
          "internalType": "uint256",
          "name": "_tokenId",
          "type": "uint256"
        }
      ],
      "name": "MetadataUpdate",
      "type": "event"
    },
    {
      "anonymous": false,
      "inputs": [
        {
          "indexed": true,
          "internalType": "bytes32",
          "name": "role",
          "type": "bytes32"
        },
        {
          "indexed": true,
          "internalType": "bytes32",
          "name": "previousAdminRole",
          "type": "bytes32"
        },
        {
          "indexed": true,
          "internalType": "bytes32",
          "name": "newAdminRole",
          "type": "bytes32"
        }
      ],
      "name": "RoleAdminChanged",
      "type": "event"
    },
    {
      "anonymous": false,
      "inputs": [
        {
          "indexed": true,
          "internalType": "bytes32",
          "name": "role",
          "type": "bytes32"
        },
        {
          "indexed": true,
          "internalType": "address",
          "name": "account",
          "type": "address"
        },
        {
          "indexed": true,
          "internalType": "address",
          "name": "sender",
          "type": "address"
        }
      ],
      "name": "RoleGranted",
      "type": "event"
    },
    {
      "anonymous": false,
      "inputs": [
        {
          "indexed": true,
          "internalType": "bytes32",
          "name": "role",
          "type": "bytes32"
        },
        {
          "indexed": true,
          "internalType": "address",
          "name": "account",
          "type": "address"
        },
        {
          "indexed": true,
          "internalType": "address",
          "name": "sender",
          "type": "address"
        }
      ],
      "name": "RoleRevoked",
      "type": "event"
    },
    {
      "anonymous": false,
      "inputs": [
        {
          "indexed": true,
          "internalType": "address",
          "name": "from",
          "type": "address"
        },
        {
          "indexed": true,
          "internalType": "address",
          "name": "to",
          "type": "address"
        },
        {
          "indexed": true,
          "internalType": "uint256",
          "name": "tokenId",
          "type": "uint256"
        }
      ],
      "name": "Transfer",
      "type": "event"
    },
    {
      "anonymous": false,
      "inputs": [
        {
          "indexed": false,
          "internalType": "address",
          "name": "to",
          "type": "address"
        },
        {
          "indexed": false,
          "internalType": "uint256",
          "name": "tokenId",
          "type": "uint256"
        },
        {
          "indexed": false,
          "internalType": "string",
          "name": "hashtag",
          "type": "string"
        }
      ],
      "name": "mintEvent",
      "type": "event"
    },
    {
      "inputs": [],
      "name": "DEFAULT_ADMIN_ROLE",
      "outputs": [
        {
          "internalType": "bytes32",
          "name": "",
          "type": "bytes32"
        }
      ],
      "stateMutability": "view",
      "type": "function"
    },
    {
      "inputs": [
        {
          "internalType": "address",
          "name": "to",
          "type": "address"
        },
        {
          "internalType": "uint256",
          "name": "tokenId",
          "type": "uint256"
        }
      ],
      "name": "approve",
      "outputs": [],
      "stateMutability": "nonpayable",
      "type": "function"
    },
    {
      "inputs": [
        {
          "internalType": "address",
          "name": "owner",
          "type": "address"
        }
      ],
      "name": "balanceOf",
      "outputs": [
        {
          "internalType": "uint256",
          "name": "",
          "type": "uint256"
        }
      ],
      "stateMutability": "view",
      "type": "function"
    },
    {
      "inputs": [],
      "name": "feeAccumulator",
      "outputs": [
        {
          "internalType": "address",
          "name": "",
          "type": "address"
        }
      ],
      "stateMutability": "view",
      "type": "function"
    },
    {
      "inputs": [
        {
          "internalType": "uint256",
          "name": "tokenId",
          "type": "uint256"
        },
        {
          "internalType": "string",
          "name": "_hashtag",
          "type": "string"
        }
      ],
      "name": "generateMetadata",
      "outputs": [
        {
          "internalType": "string",
          "name": "",
          "type": "string"
        }
      ],
      "stateMutability": "view",
      "type": "function"
    },
    {
      "inputs": [
        {
          "internalType": "string",
          "name": "_hashtag",
          "type": "string"
        }
      ],
      "name": "generateSVG",
      "outputs": [
        {
          "internalType": "string",
          "name": "",
          "type": "string"
        }
      ],
      "stateMutability": "pure",
      "type": "function"
    },
    {
      "inputs": [
        {
          "internalType": "uint256",
          "name": "tokenId",
          "type": "uint256"
        }
      ],
      "name": "getApproved",
      "outputs": [
        {
          "internalType": "address",
          "name": "",
          "type": "address"
        }
      ],
      "stateMutability": "view",
      "type": "function"
    },
    {
      "inputs": [
        {
          "internalType": "bytes32",
          "name": "role",
          "type": "bytes32"
        }
      ],
      "name": "getRoleAdmin",
      "outputs": [
        {
          "internalType": "bytes32",
          "name": "",
          "type": "bytes32"
        }
      ],
      "stateMutability": "view",
      "type": "function"
    },
    {
      "inputs": [
        {
          "internalType": "address",
          "name": "tokenOwner",
          "type": "address"
        }
      ],
      "name": "getTokenIdsOwnedBy",
      "outputs": [
        {
          "internalType": "uint256[]",
          "name": "",
          "type": "uint256[]"
        }
      ],
      "stateMutability": "view",
      "type": "function"
    },
    {
      "inputs": [
        {
          "internalType": "bytes32",
          "name": "role",
          "type": "bytes32"
        },
        {
          "internalType": "address",
          "name": "account",
          "type": "address"
        }
      ],
      "name": "grantRole",
      "outputs": [],
      "stateMutability": "nonpayable",
      "type": "function"
    },
    {
      "inputs": [
        {
          "internalType": "bytes32",
          "name": "role",
          "type": "bytes32"
        },
        {
          "internalType": "address",
          "name": "account",
          "type": "address"
        }
      ],
      "name": "hasRole",
      "outputs": [
        {
          "internalType": "bool",
          "name": "",
          "type": "bool"
        }
      ],
      "stateMutability": "view",
      "type": "function"
    },
    {
      "inputs": [
        {
          "internalType": "address",
          "name": "owner",
          "type": "address"
        },
        {
          "internalType": "address",
          "name": "operator",
          "type": "address"
        }
      ],
      "name": "isApprovedForAll",
      "outputs": [
        {
          "internalType": "bool",
          "name": "",
          "type": "bool"
        }
      ],
      "stateMutability": "view",
      "type": "function"
    },
    {
      "inputs": [
        {
          "internalType": "string",
          "name": "_hashtag",
          "type": "string"
        }
      ],
      "name": "isHashtagMinted",
      "outputs": [
        {
          "internalType": "bool",
          "name": "",
          "type": "bool"
        }
      ],
      "stateMutability": "view",
      "type": "function"
    },
    {
      "inputs": [],
      "name": "name",
      "outputs": [
        {
          "internalType": "string",
          "name": "",
          "type": "string"
        }
      ],
      "stateMutability": "view",
      "type": "function"
    },
    {
      "inputs": [
        {
          "internalType": "uint256",
          "name": "tokenId",
          "type": "uint256"
        }
      ],
      "name": "ownerOf",
      "outputs": [
        {
          "internalType": "address",
          "name": "",
          "type": "address"
        }
      ],
      "stateMutability": "view",
      "type": "function"
    },
    {
      "inputs": [
        {
          "internalType": "bytes32",
          "name": "role",
          "type": "bytes32"
        },
        {
          "internalType": "address",
          "name": "account",
          "type": "address"
        }
      ],
      "name": "renounceRole",
      "outputs": [],
      "stateMutability": "nonpayable",
      "type": "function"
    },
    {
      "inputs": [
        {
          "internalType": "bytes32",
          "name": "role",
          "type": "bytes32"
        },
        {
          "internalType": "address",
          "name": "account",
          "type": "address"
        }
      ],
      "name": "revokeRole",
      "outputs": [],
      "stateMutability": "nonpayable",
      "type": "function"
    },
    {
      "inputs": [
        {
          "internalType": "address",
          "name": "to",
          "type": "address"
        },
        {
          "internalType": "string",
          "name": "_hashTag",
          "type": "string"
        }
      ],
      "name": "safeMint",
      "outputs": [],
      "stateMutability": "nonpayable",
      "type": "function"
    },
    {
      "inputs": [
        {
          "internalType": "address",
          "name": "from",
          "type": "address"
        },
        {
          "internalType": "address",
          "name": "to",
          "type": "address"
        },
        {
          "internalType": "uint256",
          "name": "tokenId",
          "type": "uint256"
        }
      ],
      "name": "safeTransferFrom",
      "outputs": [],
      "stateMutability": "nonpayable",
      "type": "function"
    },
    {
      "inputs": [
        {
          "internalType": "address",
          "name": "from",
          "type": "address"
        },
        {
          "internalType": "address",
          "name": "to",
          "type": "address"
        },
        {
          "internalType": "uint256",
          "name": "tokenId",
          "type": "uint256"
        },
        {
          "internalType": "bytes",
          "name": "data",
          "type": "bytes"
        }
      ],
      "name": "safeTransferFrom",
      "outputs": [],
      "stateMutability": "nonpayable",
      "type": "function"
    },
    {
      "inputs": [
        {
          "internalType": "address",
          "name": "operator",
          "type": "address"
        },
        {
          "internalType": "bool",
          "name": "approved",
          "type": "bool"
        }
      ],
      "name": "setApprovalForAll",
      "outputs": [],
      "stateMutability": "nonpayable",
      "type": "function"
    },
    {
      "inputs": [
        {
          "internalType": "bytes4",
          "name": "interfaceId",
          "type": "bytes4"
        }
      ],
      "name": "supportsInterface",
      "outputs": [
        {
          "internalType": "bool",
          "name": "",
          "type": "bool"
        }
      ],
      "stateMutability": "view",
      "type": "function"
    },
    {
      "inputs": [],
      "name": "symbol",
      "outputs": [
        {
          "internalType": "string",
          "name": "",
          "type": "string"
        }
      ],
      "stateMutability": "view",
      "type": "function"
    },
    {
      "inputs": [
        {
          "internalType": "uint256",
          "name": "index",
          "type": "uint256"
        }
      ],
      "name": "tokenByIndex",
      "outputs": [
        {
          "internalType": "uint256",
          "name": "",
          "type": "uint256"
        }
      ],
      "stateMutability": "view",
      "type": "function"
    },
    {
      "inputs": [
        {
          "internalType": "address",
          "name": "owner",
          "type": "address"
        },
        {
          "internalType": "uint256",
          "name": "index",
          "type": "uint256"
        }
      ],
      "name": "tokenOfOwnerByIndex",
      "outputs": [
        {
          "internalType": "uint256",
          "name": "",
          "type": "uint256"
        }
      ],
      "stateMutability": "view",
      "type": "function"
    },
    {
      "inputs": [
        {
          "internalType": "uint256",
          "name": "tokenId",
          "type": "uint256"
        }
      ],
      "name": "tokenURI",
      "outputs": [
        {
          "internalType": "string",
          "name": "",
          "type": "string"
        }
      ],
      "stateMutability": "view",
      "type": "function"
    },
    {
      "inputs": [],
      "name": "totalSupply",
      "outputs": [
        {
          "internalType": "uint256",
          "name": "",
          "type": "uint256"
        }
      ],
      "stateMutability": "view",
      "type": "function"
    },
    {
      "inputs": [
        {
          "internalType": "address",
          "name": "from",
          "type": "address"
        },
        {
          "internalType": "address",
          "name": "to",
          "type": "address"
        },
        {
          "internalType": "uint256",
          "name": "tokenId",
          "type": "uint256"
        }
      ],
      "name": "transferFrom",
      "outputs": [],
      "stateMutability": "nonpayable",
      "type": "function"
    },
    {
      "inputs": [
        {
          "internalType": "address",
          "name": "accAddress",
          "type": "address"
        }
      ],
      "name": "updateFeeAccumulator",
      "outputs": [],
      "stateMutability": "nonpayable",
      "type": "function"
    }
  ],
  "bytecode": "0x60806040523480156200001157600080fd5b50604051620030b9380380620030b98339810160408190526200003491620002d4565b8351849084906200004d90600090602085019062000144565b5080516200006390600190602084019062000144565b5062000075915060009050836200009f565b600c80546001600160a01b0319166001600160a01b039290921691909117905550620003a0915050565b6000828152600b602090815260408083206001600160a01b038516845290915290205460ff1662000140576000828152600b602090815260408083206001600160a01b03851684529091529020805460ff19166001179055620000ff3390565b6001600160a01b0316816001600160a01b0316837f2f8788117e7eff1d82e926ec794901d17c78024a50270940304540a733656f0d60405160405180910390a45b5050565b828054620001529062000363565b90600052602060002090601f016020900481019282620001765760008555620001c1565b82601f106200019157805160ff1916838001178555620001c1565b82800160010185558215620001c1579182015b82811115620001c1578251825591602001919060010190620001a4565b50620001cf929150620001d3565b5090565b5b80821115620001cf5760008155600101620001d4565b634e487b7160e01b600052604160045260246000fd5b600082601f8301126200021257600080fd5b81516001600160401b03808211156200022f576200022f620001ea565b604051601f8301601f19908116603f011681019082821181831017156200025a576200025a620001ea565b816040528381526020925086838588010111156200027757600080fd5b600091505b838210156200029b57858201830151818301840152908201906200027c565b83821115620002ad5760008385830101525b9695505050505050565b80516001600160a01b0381168114620002cf57600080fd5b919050565b60008060008060808587031215620002eb57600080fd5b84516001600160401b03808211156200030357600080fd5b620003118883890162000200565b955060208701519150808211156200032857600080fd5b50620003378782880162000200565b9350506200034860408601620002b7565b91506200035860608601620002b7565b905092959194509250565b600181811c908216806200037857607f821691505b602082108114156200039a57634e487b7160e01b600052602260045260246000fd5b50919050565b612d0980620003b06000396000f3fe608060405234801561001057600080fd5b50600436106101cf5760003560e01c80636352211e11610104578063adff80c2116100a2578063cd4700d411610071578063cd4700d41461040c578063d204c45e1461041f578063d547741f14610432578063e985e9c51461044557600080fd5b8063adff80c2146103c0578063b88d4fde146103d3578063bb926f87146103e6578063c87b56dd146103f957600080fd5b806391d14854116100de57806391d148541461036457806395d89b411461039d578063a217fddf146103a5578063a22cb465146103ad57600080fd5b80636352211e1461032b578063691a3ca01461033e57806370a082311461035157600080fd5b80632f2ff15d1161017157806342842e0e1161014b57806342842e0e146102d25780634f6ccce7146102e55780635eaea35f146102f857806363318f851461030b57600080fd5b80632f2ff15d146102995780632f745c59146102ac57806336568abe146102bf57600080fd5b8063095ea7b3116101ad578063095ea7b31461023c57806318160ddd1461025157806323b872dd14610263578063248a9ca31461027657600080fd5b806301ffc9a7146101d457806306fdde03146101fc578063081812fc14610211575b600080fd5b6101e76101e2366004612385565b610481565b60405190151581526020015b60405180910390f35b610204610492565b6040516101f391906123fa565b61022461021f36600461240d565b610524565b6040516001600160a01b0390911681526020016101f3565b61024f61024a366004612442565b61054b565b005b6008545b6040519081526020016101f3565b61024f61027136600461246c565b610666565b61025561028436600461240d565b6000908152600b602052604090206001015490565b61024f6102a73660046124a8565b6106dd565b6102556102ba366004612442565b610702565b61024f6102cd3660046124a8565b6107aa565b61024f6102e036600461246c565b610836565b6102556102f336600461240d565b610851565b600c54610224906001600160a01b031681565b61031e6103193660046124d4565b6108f5565b6040516101f391906124ef565b61022461033936600461240d565b610961565b61020461034c3660046125df565b6109c6565b61025561035f3660046124d4565b610a4b565b6101e76103723660046124a8565b6000918252600b602090815260408084206001600160a01b0393909316845291905290205460ff1690565b610204610ae5565b610255600081565b61024f6103bb366004612626565b610af4565b61024f6103ce3660046124d4565b610aff565b61024f6103e1366004612662565b610b2d565b6101e76103f43660046126de565b610bab565b61020461040736600461240d565b610bd6565b61020461041a3660046126de565b610c03565b61024f61042d366004612713565b610c2f565b61024f6104403660046124a8565b610d68565b6101e761045336600461274b565b6001600160a01b03918216600090815260056020908152604080832093909416825291909152205460ff1690565b600061048c82610d8d565b92915050565b6060600080546104a190612775565b80601f01602080910402602001604051908101604052809291908181526020018280546104cd90612775565b801561051a5780601f106104ef5761010080835404028352916020019161051a565b820191906000526020600020905b8154815290600101906020018083116104fd57829003601f168201915b5050505050905090565b600061052f82610db2565b506000908152600460205260409020546001600160a01b031690565b600061055682610961565b9050806001600160a01b0316836001600160a01b031614156105c95760405162461bcd60e51b815260206004820152602160248201527f4552433732313a20617070726f76616c20746f2063757272656e74206f776e656044820152603960f91b60648201526084015b60405180910390fd5b336001600160a01b03821614806105e557506105e58133610453565b6106575760405162461bcd60e51b815260206004820152603d60248201527f4552433732313a20617070726f76652063616c6c6572206973206e6f7420746f60448201527f6b656e206f776e6572206f7220617070726f76656420666f7220616c6c00000060648201526084016105c0565b6106618383610e19565b505050565b6106703382610e87565b6106d25760405162461bcd60e51b815260206004820152602d60248201527f4552433732313a2063616c6c6572206973206e6f7420746f6b656e206f776e6560448201526c1c881bdc88185c1c1c9bdd9959609a1b60648201526084016105c0565b610661838383610f06565b6000828152600b60205260409020600101546106f8816110f3565b61066183836110fd565b600061070d83610a4b565b82106107815760405162461bcd60e51b815260206004820152602b60248201527f455243373231456e756d657261626c653a206f776e657220696e646578206f7560448201527f74206f6620626f756e647300000000000000000000000000000000000000000060648201526084016105c0565b506001600160a01b03919091166000908152600660209081526040808320938352929052205490565b6001600160a01b03811633146108285760405162461bcd60e51b815260206004820152602f60248201527f416363657373436f6e74726f6c3a2063616e206f6e6c792072656e6f756e636560448201527f20726f6c657320666f722073656c66000000000000000000000000000000000060648201526084016105c0565b610832828261119f565b5050565b61066183838360405180602001604052806000815250610b2d565b600061085c60085490565b82106108d05760405162461bcd60e51b815260206004820152602c60248201527f455243373231456e756d657261626c653a20676c6f62616c20696e646578206f60448201527f7574206f6620626f756e6473000000000000000000000000000000000000000060648201526084016105c0565b600882815481106108e3576108e36127b0565b90600052602060002001549050919050565b6001600160a01b0381166000908152600d602090815260409182902080548351818402810184019094528084526060939283018282801561095557602002820191906000526020600020905b815481526020019060010190808311610941575b50505050509050919050565b6000818152600260205260408120546001600160a01b03168061048c5760405162461bcd60e51b815260206004820152601860248201527f4552433732313a20696e76616c696420746f6b656e204944000000000000000060448201526064016105c0565b6000828152600260205260409020546060906001600160a01b03166109ea57600080fd5b610a24826109ff6109fa85610c03565b611222565b604051602001610a109291906127c6565b604051602081830303815290604052611222565b604051602001610a3491906128c8565b604051602081830303815290604052905092915050565b60006001600160a01b038216610ac95760405162461bcd60e51b815260206004820152602960248201527f4552433732313a2061646472657373207a65726f206973206e6f74206120766160448201527f6c6964206f776e6572000000000000000000000000000000000000000000000060648201526084016105c0565b506001600160a01b031660009081526003602052604090205490565b6060600180546104a190612775565b610832338383611383565b6000610b0a816110f3565b50600c80546001600160a01b0319166001600160a01b0392909216919091179055565b610b373383610e87565b610b995760405162461bcd60e51b815260206004820152602d60248201527f4552433732313a2063616c6c6572206973206e6f7420746f6b656e206f776e6560448201526c1c881bdc88185c1c1c9bdd9959609a1b60648201526084016105c0565b610ba584848484611452565b50505050565b6000600e82604051610bbd919061290d565b9081526040519081900360200190205460ff1692915050565b6000818152600260205260409020546060906001600160a01b0316610bfa57600080fd5b61048c826114d0565b6060600082604051602001610c189190612929565b60408051601f198184030181529190529392505050565b600e81604051610c3f919061290d565b9081526040519081900360200190205460ff1615610c9f5760405162461bcd60e51b815260206004820152601260248201527f4e465420616c7265616479206d696e746564000000000000000000000000000060448201526064016105c0565b6000610caa60085490565b9050610cb683826115d9565b610cc981610cc483856109c6565b6115f3565b6001600160a01b0383166000908152600d602090815260408083208054600181810183559185529290932090910183905551600e90610d0990859061290d565b908152604051908190036020018120805492151560ff19909316929092179091557f76d561a4b8dadcdd199f5cc6472c5f442eb49b33a530632e4c5c91cdb4c8d2b690610d5b90859084908690612ab4565b60405180910390a1505050565b6000828152600b6020526040902060010154610d83816110f3565b610661838361119f565b60006001600160e01b03198216637965db0b60e01b148061048c575061048c826116d4565b6000818152600260205260409020546001600160a01b0316610e165760405162461bcd60e51b815260206004820152601860248201527f4552433732313a20696e76616c696420746f6b656e204944000000000000000060448201526064016105c0565b50565b600081815260046020526040902080546001600160a01b0319166001600160a01b0384169081179091558190610e4e82610961565b6001600160a01b03167f8c5be1e5ebec7d5bd14f71427d1e84f3dd0314c0f7b2291e5b200ac8c7c3b92560405160405180910390a45050565b600080610e9383610961565b9050806001600160a01b0316846001600160a01b03161480610eda57506001600160a01b0380821660009081526005602090815260408083209388168352929052205460ff165b80610efe5750836001600160a01b0316610ef384610524565b6001600160a01b0316145b949350505050565b826001600160a01b0316610f1982610961565b6001600160a01b031614610f7d5760405162461bcd60e51b815260206004820152602560248201527f4552433732313a207472616e736665722066726f6d20696e636f72726563742060448201526437bbb732b960d91b60648201526084016105c0565b6001600160a01b038216610fdf5760405162461bcd60e51b8152602060048201526024808201527f4552433732313a207472616e7366657220746f20746865207a65726f206164646044820152637265737360e01b60648201526084016105c0565b610fec83838360016116f9565b826001600160a01b0316610fff82610961565b6001600160a01b0316146110635760405162461bcd60e51b815260206004820152602560248201527f4552433732313a207472616e736665722066726f6d20696e636f72726563742060448201526437bbb732b960d91b60648201526084016105c0565b600081815260046020908152604080832080546001600160a01b03199081169091556001600160a01b0387811680865260038552838620805460001901905590871680865283862080546001019055868652600290945282852080549092168417909155905184937fddf252ad1be2c89b69c2b068fc378daa952ba7f163c4a11628f55a4df523b3ef91a4505050565b610e168133611826565b6000828152600b602090815260408083206001600160a01b038516845290915290205460ff16610832576000828152600b602090815260408083206001600160a01b03851684529091529020805460ff1916600117905561115b3390565b6001600160a01b0316816001600160a01b0316837f2f8788117e7eff1d82e926ec794901d17c78024a50270940304540a733656f0d60405160405180910390a45050565b6000828152600b602090815260408083206001600160a01b038516845290915290205460ff1615610832576000828152600b602090815260408083206001600160a01b0385168085529252808320805460ff1916905551339285917ff6391f5c32d9c69d2a47ea670b442974b53935d1edc7fd64eb21e047a839171b9190a45050565b606081516000141561124257505060408051602081019091526000815290565b6000604051806060016040528060408152602001612cbd60409139905060006003845160026112719190612afb565b61127b9190612b13565b611286906004612b35565b67ffffffffffffffff81111561129e5761129e612533565b6040519080825280601f01601f1916602001820160405280156112c8576020820181803683370190505b50905060018201602082018586518701602081018051600082525b8284101561133e576003840193508351603f8160121c168701518653600186019550603f81600c1c168701518653600186019550603f8160061c168701518653600186019550603f81168701518653506001850194506112e3565b905250508551600390066001811461135d576002811461137057611378565b603d6001830353603d6002830353611378565b603d60018303535b509195945050505050565b816001600160a01b0316836001600160a01b031614156113e55760405162461bcd60e51b815260206004820152601960248201527f4552433732313a20617070726f766520746f2063616c6c65720000000000000060448201526064016105c0565b6001600160a01b03838116600081815260056020908152604080832094871680845294825291829020805460ff191686151590811790915591519182527f17307eab39ab6107e8899845ad3d59bd9653f200f220920489ca2b5937696c31910160405180910390a3505050565b61145d848484610f06565b6114698484848461189b565b610ba55760405162461bcd60e51b815260206004820152603260248201527f4552433732313a207472616e7366657220746f206e6f6e20455243373231526560448201527131b2b4bb32b91034b6b83632b6b2b73a32b960711b60648201526084016105c0565b60606114db82610db2565b6000828152600a6020526040812080546114f490612775565b80601f016020809104026020016040519081016040528092919081815260200182805461152090612775565b801561156d5780601f106115425761010080835404028352916020019161156d565b820191906000526020600020905b81548152906001019060200180831161155057829003601f168201915b50505050509050600061158b60408051602081019091526000815290565b905080516000141561159e575092915050565b8151156115d05780826040516020016115b8929190612b54565b60405160208183030381529060405292505050919050565b610efe846119e4565b610832828260405180602001604052806000815250611a58565b6000828152600260205260409020546001600160a01b031661167d5760405162461bcd60e51b815260206004820152602e60248201527f45524337323155524953746f726167653a2055524920736574206f66206e6f6e60448201527f6578697374656e7420746f6b656e00000000000000000000000000000000000060648201526084016105c0565b6000828152600a60209081526040909120825161169c928401906122d6565b506040518281527ff8e1a15aba9398e019f0b49df1a4fde98ee17ae345cb5f6b5e2c27f5033e8ce79060200160405180910390a15050565b60006001600160e01b03198216632483248360e11b148061048c575061048c82611ad6565b61170584848484611afb565b6001600160a01b03841615610ba5576001600160a01b0384166000908152600d60205260408120905b81548110156117e3578382828154811061174a5761174a6127b0565b906000526020600020015414156117d1578154829061176b90600190612b83565b8154811061177b5761177b6127b0565b9060005260206000200154828281548110611798576117986127b0565b9060005260206000200181905550818054806117b6576117b6612b9a565b600190038181906000526020600020016000905590556117e3565b806117db81612bb0565b91505061172e565b506001600160a01b0384161561181f576001600160a01b0384166000908152600d60209081526040822080546001810182559083529120018390555b5050505050565b6000828152600b602090815260408083206001600160a01b038516845290915290205460ff166108325761185981611c30565b611864836020611c42565b604051602001611875929190612bcb565b60408051601f198184030181529082905262461bcd60e51b82526105c0916004016123fa565b60006001600160a01b0384163b156119d957604051630a85bd0160e11b81526001600160a01b0385169063150b7a02906118df903390899088908890600401612c4c565b6020604051808303816000875af192505050801561191a575060408051601f3d908101601f1916820190925261191791810190612c88565b60015b6119bf573d808015611948576040519150601f19603f3d011682016040523d82523d6000602084013e61194d565b606091505b5080516119b75760405162461bcd60e51b815260206004820152603260248201527f4552433732313a207472616e7366657220746f206e6f6e20455243373231526560448201527131b2b4bb32b91034b6b83632b6b2b73a32b960711b60648201526084016105c0565b805181602001fd5b6001600160e01b031916630a85bd0160e11b149050610efe565b506001949350505050565b60606119ef82610db2565b6000611a0660408051602081019091526000815290565b90506000815111611a265760405180602001604052806000815250611a51565b80611a3084611dde565b604051602001611a41929190612b54565b6040516020818303038152906040525b9392505050565b611a628383611e7b565b611a6f600084848461189b565b6106615760405162461bcd60e51b815260206004820152603260248201527f4552433732313a207472616e7366657220746f206e6f6e20455243373231526560448201527131b2b4bb32b91034b6b83632b6b2b73a32b960711b60648201526084016105c0565b60006001600160e01b0319821663780e9d6360e01b148061048c575061048c82612014565b6001811115611b725760405162461bcd60e51b815260206004820152603560248201527f455243373231456e756d657261626c653a20636f6e736563757469766520747260448201527f616e7366657273206e6f7420737570706f72746564000000000000000000000060648201526084016105c0565b816001600160a01b038516611bce57611bc981600880546000838152600960205260408120829055600182018355919091527ff3f7a9fe364faab93b216da50a3214154f22a0a2b415b23a84c8169e8b636ee30155565b611bf1565b836001600160a01b0316856001600160a01b031614611bf157611bf18582612064565b6001600160a01b038416611c0d57611c0881612101565b61181f565b846001600160a01b0316846001600160a01b03161461181f5761181f84826121b0565b606061048c6001600160a01b03831660145b60606000611c51836002612b35565b611c5c906002612afb565b67ffffffffffffffff811115611c7457611c74612533565b6040519080825280601f01601f191660200182016040528015611c9e576020820181803683370190505b509050600360fc1b81600081518110611cb957611cb96127b0565b60200101906001600160f81b031916908160001a905350600f60fb1b81600181518110611ce857611ce86127b0565b60200101906001600160f81b031916908160001a9053506000611d0c846002612b35565b611d17906001612afb565b90505b6001811115611d8f576f181899199a1a9b1b9c1cb0b131b232b360811b85600f1660108110611d4b57611d4b6127b0565b1a60f81b828281518110611d6157611d616127b0565b60200101906001600160f81b031916908160001a90535060049490941c93611d8881612ca5565b9050611d1a565b508315611a515760405162461bcd60e51b815260206004820181905260248201527f537472696e67733a20686578206c656e67746820696e73756666696369656e7460448201526064016105c0565b60606000611deb836121f4565b600101905060008167ffffffffffffffff811115611e0b57611e0b612533565b6040519080825280601f01601f191660200182016040528015611e35576020820181803683370190505b5090508181016020015b600019016f181899199a1a9b1b9c1cb0b131b232b360811b600a86061a8153600a8504945084611e6e57611e73565b611e3f565b509392505050565b6001600160a01b038216611ed15760405162461bcd60e51b815260206004820181905260248201527f4552433732313a206d696e7420746f20746865207a65726f206164647265737360448201526064016105c0565b6000818152600260205260409020546001600160a01b031615611f365760405162461bcd60e51b815260206004820152601c60248201527f4552433732313a20746f6b656e20616c7265616479206d696e7465640000000060448201526064016105c0565b611f446000838360016116f9565b6000818152600260205260409020546001600160a01b031615611fa95760405162461bcd60e51b815260206004820152601c60248201527f4552433732313a20746f6b656e20616c7265616479206d696e7465640000000060448201526064016105c0565b6001600160a01b038216600081815260036020908152604080832080546001019055848352600290915280822080546001600160a01b0319168417905551839291907fddf252ad1be2c89b69c2b068fc378daa952ba7f163c4a11628f55a4df523b3ef908290a45050565b60006001600160e01b031982166380ac58cd60e01b148061204557506001600160e01b03198216635b5e139f60e01b145b8061048c57506301ffc9a760e01b6001600160e01b031983161461048c565b6000600161207184610a4b565b61207b9190612b83565b6000838152600760205260409020549091508082146120ce576001600160a01b03841660009081526006602090815260408083208584528252808320548484528184208190558352600790915290208190555b5060009182526007602090815260408084208490556001600160a01b039094168352600681528383209183525290812055565b60085460009061211390600190612b83565b6000838152600960205260408120546008805493945090928490811061213b5761213b6127b0565b90600052602060002001549050806008838154811061215c5761215c6127b0565b600091825260208083209091019290925582815260099091526040808220849055858252812055600880548061219457612194612b9a565b6001900381819060005260206000200160009055905550505050565b60006121bb83610a4b565b6001600160a01b039093166000908152600660209081526040808320868452825280832085905593825260079052919091209190915550565b6000807a184f03e93ff9f4daa797ed6e38ed64bf6a1f010000000000000000831061223d577a184f03e93ff9f4daa797ed6e38ed64bf6a1f010000000000000000830492506040015b6d04ee2d6d415b85acef81000000008310612269576d04ee2d6d415b85acef8100000000830492506020015b662386f26fc10000831061228757662386f26fc10000830492506010015b6305f5e100831061229f576305f5e100830492506008015b61271083106122b357612710830492506004015b606483106122c5576064830492506002015b600a831061048c5760010192915050565b8280546122e290612775565b90600052602060002090601f016020900481019282612304576000855561234a565b82601f1061231d57805160ff191683800117855561234a565b8280016001018555821561234a579182015b8281111561234a57825182559160200191906001019061232f565b5061235692915061235a565b5090565b5b80821115612356576000815560010161235b565b6001600160e01b031981168114610e1657600080fd5b60006020828403121561239757600080fd5b8135611a518161236f565b60005b838110156123bd5781810151838201526020016123a5565b83811115610ba55750506000910152565b600081518084526123e68160208601602086016123a2565b601f01601f19169290920160200192915050565b602081526000611a5160208301846123ce565b60006020828403121561241f57600080fd5b5035919050565b80356001600160a01b038116811461243d57600080fd5b919050565b6000806040838503121561245557600080fd5b61245e83612426565b946020939093013593505050565b60008060006060848603121561248157600080fd5b61248a84612426565b925061249860208501612426565b9150604084013590509250925092565b600080604083850312156124bb57600080fd5b823591506124cb60208401612426565b90509250929050565b6000602082840312156124e657600080fd5b611a5182612426565b6020808252825182820181905260009190848201906040850190845b818110156125275783518352928401929184019160010161250b565b50909695505050505050565b634e487b7160e01b600052604160045260246000fd5b600067ffffffffffffffff8084111561256457612564612533565b604051601f8501601f19908116603f0116810190828211818310171561258c5761258c612533565b816040528093508581528686860111156125a557600080fd5b858560208301376000602087830101525050509392505050565b600082601f8301126125d057600080fd5b611a5183833560208501612549565b600080604083850312156125f257600080fd5b82359150602083013567ffffffffffffffff81111561261057600080fd5b61261c858286016125bf565b9150509250929050565b6000806040838503121561263957600080fd5b61264283612426565b91506020830135801515811461265757600080fd5b809150509250929050565b6000806000806080858703121561267857600080fd5b61268185612426565b935061268f60208601612426565b925060408501359150606085013567ffffffffffffffff8111156126b257600080fd5b8501601f810187136126c357600080fd5b6126d287823560208401612549565b91505092959194509250565b6000602082840312156126f057600080fd5b813567ffffffffffffffff81111561270757600080fd5b610efe848285016125bf565b6000806040838503121561272657600080fd5b61272f83612426565b9150602083013567ffffffffffffffff81111561261057600080fd5b6000806040838503121561275e57600080fd5b61276783612426565b91506124cb60208401612426565b600181811c9082168061278957607f821691505b602082108114156127aa57634e487b7160e01b600052602260045260246000fd5b50919050565b634e487b7160e01b600052603260045260246000fd5b7f7b226e616d65223a2022000000000000000000000000000000000000000000008152600083516127fe81600a8501602088016123a2565b7f222c20226465736372697074696f6e223a202266617263617374204861736874600a918401918201527f61672066756c6c79206f6e2d636861696e2c205472656e6473222c2022617474602a8201527f72696275746573223a2022222c2022696d616765223a22646174613a696d6167604a8201527f652f7376672b786d6c3b6261736536342c000000000000000000000000000000606a82015283516128ad81607b8401602088016123a2565b61227d60f01b607b9290910191820152607d01949350505050565b7f646174613a6170706c69636174696f6e2f6a736f6e3b6261736536342c00000081526000825161290081601d8501602087016123a2565b91909101601d0192915050565b6000825161291f8184602087016123a2565b9190910192915050565b7f3c73766720786d6c6e733d22687474703a2f2f7777772e77332e6f72672f323081527f30302f737667222077696474683d2233303022206865696768743d22333030226020820152601f60f91b60408201527f3c726563742077696474683d223130302522206865696768743d22313030252260418201527f2066696c6c3d2223414444384536222f3e00000000000000000000000000000060618201527f3c7465787420783d223530252220793d223530252220646f6d696e616e742d6260728201527f6173656c696e653d226d6964646c652220746578742d616e63686f723d226d6960928201527f64646c65222066696c6c3d22626c61636b2220666f6e742d73697a653d22343060b282015261111f60f11b60d282015260008251612a5a8160d48501602087016123a2565b7f3c2f746578743e0000000000000000000000000000000000000000000000000060d491840191820152610efe60db82017f3c2f7376673e0000000000000000000000000000000000000000000000000000815260060190565b6001600160a01b0384168152826020820152606060408201526000612adc60608301846123ce565b95945050505050565b634e487b7160e01b600052601160045260246000fd5b60008219821115612b0e57612b0e612ae5565b500190565b600082612b3057634e487b7160e01b600052601260045260246000fd5b500490565b6000816000190483118215151615612b4f57612b4f612ae5565b500290565b60008351612b668184602088016123a2565b835190830190612b7a8183602088016123a2565b01949350505050565b600082821015612b9557612b95612ae5565b500390565b634e487b7160e01b600052603160045260246000fd5b6000600019821415612bc457612bc4612ae5565b5060010190565b7f416363657373436f6e74726f6c3a206163636f756e7420000000000000000000815260008351612c038160178501602088016123a2565b7f206973206d697373696e6720726f6c65200000000000000000000000000000006017918401918201528351612c408160288401602088016123a2565b01602801949350505050565b60006001600160a01b03808716835280861660208401525083604083015260806060830152612c7e60808301846123ce565b9695505050505050565b600060208284031215612c9a57600080fd5b8151611a518161236f565b600081612cb457612cb4612ae5565b50600019019056fe4142434445464748494a4b4c4d4e4f505152535455565758595a6162636465666768696a6b6c6d6e6f707172737475767778797a303132333435363738392b2fa164736f6c634300080a000a",
  "linkReferences": {},
  "deployedLinkReferences": {}
}